:1000000012C05BC0C5C01FC01EC01DC01CC01BC02D
:1000100013C119C018C017C016C015C014C013C032
:1000200012C011C010C011241FBECFE5D4E0DEBF46
:10003000CDBF10E0A0E6B0E001C01D92A836B10728
:10004000E1F741D110C0DCCF86E990E0C79AE5E244
:10005000F2E03197F1F700C00000C798C69AEFE5CB
:10006000F9E03197F1F700C00000C698EFE1FEE437
:100070003197F1F700C00000019741F7089586E934
:1000800090E0C79AEFE5F9E03197F1F700C0000082
:10009000C798C69AE5E2F2E03197F1F700C0000098
:1000A000C698EFE1FEE43197F1F700C00000019738
:1000B00041F70895C9DF979808951F920F920FB6E0
:1000C0000F9211242F933F934F935F936F937F93DE
:1000D0008F939F93AF93BF93EF93FF93F8948BB756
:1000E0008F7B8BBF78948091620090916300009722
:1000F00041F4C19A81E090E09093630080936200A4
:1001000005C0C19810926300109262008091600057
:10011000909161000196909361008093600083301C
:100120009105A9F0843091053CF48130910559F096
:100130008230910589F409C08430910551F08630F0
:10014000910551F408C0C09A07C0979A05C0969AC5
:1001500003C0959A01C0AEDF87E893E10197F1F7FC
:1001600000C00000F8948BB780648BBF7894FF9137
:10017000EF91BF91AF919F918F917F916F915F911F
:100180004F913F912F910F900FBE0F901F90189598
:100190001F920F920FB60F9211242F933F934F93FC
:1001A0005F936F937F938F939F93AF93BF93EF93DF
:1001B000FF93F8948BB78F778BBF789487EE93E09B
:1001C0000197F1F700C000008091640090916500F4
:1001D000009749F4C09A81E090E090936500809385
:1001E00064004DDF06C0C098109265001092640054
:1001F0002BDF87E893E10197F1F700C00000F89446
:100200008BB780688BBF7894FF91EF91BF91AF91CE
:100210009F918F917F916F915F914F913F912F911E
:100220000F900FBE0F901F90189585E08EBD8DEB3F
:1002300090EF9DBD8CBD08951F920F920FB60F9247
:1002400011242F933F934F935F936F937F938F93DB
:100250009F93AF93BF93EF93FF938DEB90EF9DBD73
:100260008CBD8091620090916300009741F4C19A27
:1002700081E090E0909363008093620005C0C19894
:100280001092630010926200809166009091670066
:100290008C33910514F00EDF05C001969093670032
:1002A00080936600FF91EF91BF91AF919F918F91E5
:1002B0007F916F915F914F913F912F910F900FBE62
:1002C0000F901F90189582B38C6082BB87B38360B8
:1002D00087BB81B3806E81BB87B3806C87BB85B7DA
:1002E000886085BF85B7826085BF8BB7806C8BBF08
:1002F000979AC5DE9ADF78949D9906C009B602FCEC
:10030000FBCF89B7846002C089B78B7F89BFF4CFE8
:00000001FF
