:1000000012C045C072C01FC01EC01DC01CC01BC096
:100010007CC019C018C017C016C015C014C013C0CA
:1000200012C011C010C011241FBECFE5D4E0DEBF46
:10003000CDBF10E0A0E6B0E001C01D92A336B1072D
:10004000E1F7C7D001C0DCCFDF93CF93CDB7DEB7E8
:1000500082E390E022E330E0F90120812F77FC0178
:100060002083CF91DF910895DF93CF93CDB7DEB793
:100070008EE490E025E0FC0120838CE490E02DEB01
:1000800030EFFC0131832083CF91DF9108951F92DF
:100090000F920FB60F9211242F933F938F939F933C
:1000A000EF93FF93DF93CF93CDB7DEB788E390E074
:1000B00028E330E0F90120812260FC01208388E3FD
:1000C00090E028E330E0F90120812D7FFC012083BE
:1000D000CF91DF91FF91EF919F918F913F912F9160
:1000E0000F900FBE0F901F9018951F920F920FB692
:1000F0000F921124DF93CF93CDB7DEB7CF91DF916D
:100100000F900FBE0F901F9018951F920F920FB671
:100110000F9211242F933F934F935F936F937F938D
:100120008F939F93AF93BF93EF93FF93DF93CF93FF
:10013000CDB7DEB78CE490E02DEB30EFFC013183DE
:10014000208386E390E0FC01808188E390E028E34F
:1001500030E0F90120812160FC01208383E390E0FD
:10016000FC018081882361F01092600089E590E0B5
:1001700029E530E0F90120812B7FFC01208316C0A6
:100180008091610090916200843B910550F48091D0
:1001900061009091620001969093620080936100EB
:1001A00005C010926200109261004EDFCF91DF9186
:1001B000FF91EF91BF91AF919F918F917F916F913F
:1001C0005F914F913F912F910F900FBE0F901F9015
:1001D0001895DF93CF93CDB7DEB782E390E022E3AB
:1001E00030E0F90120812160FC01208387E390E069
:1001F00027E330E0F90120812160FC01208388E3BE
:1002000090E028E330E0F90120812260FC012083A6
:1002100081E390E021E330E0F90120812160FC01DD
:10022000208382E390E022E330E0F901208120681E
:10023000FC01208385E590E025E530E0F90120818F
:100240002160FC0120838BE590E02BE530E0F90193
:1002500020812160FC01208307DF789403C0000027
:1002600001C0000083E390E0FC0180818823B9F79E
:10027000809160008823A9F789E590E029E530E0C6
:10028000F90120812460FC01208381E080936000DB
:02029000E9CFB4
:00000001FF
